{
  "_format": "hh-sol-artifact-1",
  "contractName": "ForgeInventory",
  "sourceName": "contracts/ForgeInventory.sol",
  "abi": [
    {
      "inputs": [],
      "stateMutability": "nonpayable",
      "type": "constructor"
    },
    {
      "inputs": [],
      "name": "AccessControlBadConfirmation",
      "type": "error"
    },
    {
      "inputs": [
        {
          "internalType": "address",
          "name": "account",
          "type": "address"
        },
        {
          "internalType": "bytes32",
          "name": "neededRole",
          "type": "bytes32"
        }
      ],
      "name": "AccessControlUnauthorizedAccount",
      "type": "error"
    },
    {
      "inputs": [
        {
          "internalType": "address",
          "name": "target",
          "type": "address"
        }
      ],
      "name": "AddressEmptyCode",
      "type": "error"
    },
    {
      "inputs": [
        {
          "internalType": "address",
          "name": "sender",
          "type": "address"
        },
        {
          "internalType": "uint256",
          "name": "balance",
          "type": "uint256"
        },
        {
          "internalType": "uint256",
          "name": "needed",
          "type": "uint256"
        },
        {
          "internalType": "uint256",
          "name": "tokenId",
          "type": "uint256"
        }
      ],
      "name": "ERC1155InsufficientBalance",
      "type": "error"
    },
    {
      "inputs": [
        {
          "internalType": "address",
          "name": "approver",
          "type": "address"
        }
      ],
      "name": "ERC1155InvalidApprover",
      "type": "error"
    },
    {
      "inputs": [
        {
          "internalType": "uint256",
          "name": "idsLength",
          "type": "uint256"
        },
        {
          "internalType": "uint256",
          "name": "valuesLength",
          "type": "uint256"
        }
      ],
      "name": "ERC1155InvalidArrayLength",
      "type": "error"
    },
    {
      "inputs": [
        {
          "internalType": "address",
          "name": "operator",
          "type": "address"
        }
      ],
      "name": "ERC1155InvalidOperator",
      "type": "error"
    },
    {
      "inputs": [
        {
          "internalType": "address",
          "name": "receiver",
          "type": "address"
        }
      ],
      "name": "ERC1155InvalidReceiver",
      "type": "error"
    },
    {
      "inputs": [
        {
          "internalType": "address",
          "name": "sender",
          "type": "address"
        }
      ],
      "name": "ERC1155InvalidSender",
      "type": "error"
    },
    {
      "inputs": [
        {
          "internalType": "address",
          "name": "operator",
          "type": "address"
        },
        {
          "internalType": "address",
          "name": "owner",
          "type": "address"
        }
      ],
      "name": "ERC1155MissingApprovalForAll",
      "type": "error"
    },
    {
      "inputs": [
        {
          "internalType": "address",
          "name": "implementation",
          "type": "address"
        }
      ],
      "name": "ERC1967InvalidImplementation",
      "type": "error"
    },
    {
      "inputs": [],
      "name": "ERC1967NonPayable",
      "type": "error"
    },
    {
      "inputs": [
        {
          "internalType": "uint256",
          "name": "tokenId",
          "type": "uint256"
        }
      ],
      "name": "ERC721AlreadyMinted",
      "type": "error"
    },
    {
      "inputs": [],
      "name": "EnforcedPause",
      "type": "error"
    },
    {
      "inputs": [],
      "name": "ExpectedPause",
      "type": "error"
    },
    {
      "inputs": [],
      "name": "FailedCall",
      "type": "error"
    },
    {
      "inputs": [],
      "name": "InvalidInitialization",
      "type": "error"
    },
    {
      "inputs": [
        {
          "internalType": "uint256",
          "name": "tokenId",
          "type": "uint256"
        },
        {
          "internalType": "enum ForgeInventory.TokenType",
          "name": "expected",
          "type": "uint8"
        }
      ],
      "name": "InvalidTokenType",
      "type": "error"
    },
    {
      "inputs": [
        {
          "internalType": "uint256",
          "name": "tokenId",
          "type": "uint256"
        },
        {
          "internalType": "uint256",
          "name": "requested",
          "type": "uint256"
        },
        {
          "internalType": "uint256",
          "name": "available",
          "type": "uint256"
        }
      ],
      "name": "MaxSupplyExceeded",
      "type": "error"
    },
    {
      "inputs": [],
      "name": "NotInitializing",
      "type": "error"
    },
    {
      "inputs": [
        {
          "internalType": "address",
          "name": "account",
          "type": "address"
        },
        {
          "internalType": "uint256",
          "name": "tokenId",
          "type": "uint256"
        }
      ],
      "name": "NotOwnerOfToken",
      "type": "error"
    },
    {
      "inputs": [],
      "name": "ReentrancyGuardReentrantCall",
      "type": "error"
    },
    {
      "inputs": [
        {
          "internalType": "uint256",
          "name": "tokenId",
          "type": "uint256"
        }
      ],
      "name": "SoulboundToken",
      "type": "error"
    },
    {
      "inputs": [
        {
          "internalType": "uint256",
          "name": "tokenId",
          "type": "uint256"
        }
      ],
      "name": "TokenDoesNotExist",
      "type": "error"
    },
    {
      "inputs": [],
      "name": "UUPSUnauthorizedCallContext",
      "type": "error"
    },
    {
      "inputs": [
        {
          "internalType": "bytes32",
          "name": "slot",
          "type": "bytes32"
        }
      ],
      "name": "UUPSUnsupportedProxiableUUID",
      "type": "error"
    },
    {
      "anonymous": false,
      "inputs": [
        {
          "indexed": true,
          "internalType": "address",
          "name": "account",
          "type": "address"
        },
        {
          "indexed": true,
          "internalType": "address",
          "name": "operator",
          "type": "address"
        },
        {
          "indexed": false,
          "internalType": "bool",
          "name": "approved",
          "type": "bool"
        }
      ],
      "name": "ApprovalForAll",
      "type": "event"
    },
    {
      "anonymous": false,
      "inputs": [
        {
          "indexed": false,
          "internalType": "uint64",
          "name": "version",
          "type": "uint64"
        }
      ],
      "name": "Initialized",
      "type": "event"
    },
    {
      "anonymous": false,
      "inputs": [
        {
          "indexed": false,
          "internalType": "address",
          "name": "account",
          "type": "address"
        }
      ],
      "name": "Paused",
      "type": "event"
    },
    {
      "anonymous": false,
      "inputs": [
        {
          "indexed": true,
          "internalType": "bytes32",
          "name": "role",
          "type": "bytes32"
        },
        {
          "indexed": true,
          "internalType": "bytes32",
          "name": "previousAdminRole",
          "type": "bytes32"
        },
        {
          "indexed": true,
          "internalType": "bytes32",
          "name": "newAdminRole",
          "type": "bytes32"
        }
      ],
      "name": "RoleAdminChanged",
      "type": "event"
    },
    {
      "anonymous": false,
      "inputs": [
        {
          "indexed": true,
          "internalType": "bytes32",
          "name": "role",
          "type": "bytes32"
        },
        {
          "indexed": true,
          "internalType": "address",
          "name": "account",
          "type": "address"
        },
        {
          "indexed": true,
          "internalType": "address",
          "name": "sender",
          "type": "address"
        }
      ],
      "name": "RoleGranted",
      "type": "event"
    },
    {
      "anonymous": false,
      "inputs": [
        {
          "indexed": true,
          "internalType": "bytes32",
          "name": "role",
          "type": "bytes32"
        },
        {
          "indexed": true,
          "internalType": "address",
          "name": "account",
          "type": "address"
        },
        {
          "indexed": true,
          "internalType": "address",
          "name": "sender",
          "type": "address"
        }
      ],
      "name": "RoleRevoked",
      "type": "event"
    },
    {
      "anonymous": false,
      "inputs": [
        {
          "indexed": true,
          "internalType": "uint256",
          "name": "tokenId",
          "type": "uint256"
        },
        {
          "indexed": false,
          "internalType": "bool",
          "name": "soulbound",
          "type": "bool"
        }
      ],
      "name": "SoulboundStatusChanged",
      "type": "event"
    },
    {
      "anonymous": false,
      "inputs": [
        {
          "indexed": true,
          "internalType": "address",
          "name": "from",
          "type": "address"
        },
        {
          "indexed": true,
          "internalType": "uint256",
          "name": "tokenId",
          "type": "uint256"
        },
        {
          "indexed": false,
          "internalType": "uint256",
          "name": "amount",
          "type": "uint256"
        },
        {
          "indexed": false,
          "internalType": "enum ForgeInventory.TokenType",
          "name": "tokenType",
          "type": "uint8"
        }
      ],
      "name": "TokenBurned",
      "type": "event"
    },
    {
      "anonymous": false,
      "inputs": [
        {
          "indexed": true,
          "internalType": "uint256",
          "name": "tokenId",
          "type": "uint256"
        },
        {
          "indexed": false,
          "internalType": "enum ForgeInventory.TokenType",
          "name": "tokenType",
          "type": "uint8"
        },
        {
          "indexed": false,
          "internalType": "string",
          "name": "category",
          "type": "string"
        },
        {
          "indexed": false,
          "internalType": "string",
          "name": "subCategory",
          "type": "string"
        }
      ],
      "name": "TokenCreated",
      "type": "event"
    },
    {
      "anonymous": false,
      "inputs": [
        {
          "indexed": true,
          "internalType": "address",
          "name": "to",
          "type": "address"
        },
        {
          "indexed": true,
          "internalType": "uint256",
          "name": "tokenId",
          "type": "uint256"
        },
        {
          "indexed": false,
          "internalType": "uint256",
          "name": "amount",
          "type": "uint256"
        },
        {
          "indexed": false,
          "internalType": "enum ForgeInventory.TokenType",
          "name": "tokenType",
          "type": "uint8"
        }
      ],
      "name": "TokenMinted",
      "type": "event"
    },
    {
      "anonymous": false,
      "inputs": [
        {
          "indexed": true,
          "internalType": "uint256",
          "name": "tokenId",
          "type": "uint256"
        },
        {
          "indexed": false,
          "internalType": "string",
          "name": "uri",
          "type": "string"
        }
      ],
      "name": "TokenURISet",
      "type": "event"
    },
    {
      "anonymous": false,
      "inputs": [
        {
          "indexed": true,
          "internalType": "address",
          "name": "operator",
          "type": "address"
        },
        {
          "indexed": true,
          "internalType": "address",
          "name": "from",
          "type": "address"
        },
        {
          "indexed": true,
          "internalType": "address",
          "name": "to",
          "type": "address"
        },
        {
          "indexed": false,
          "internalType": "uint256[]",
          "name": "ids",
          "type": "uint256[]"
        },
        {
          "indexed": false,
          "internalType": "uint256[]",
          "name": "values",
          "type": "uint256[]"
        }
      ],
      "name": "TransferBatch",
      "type": "event"
    },
    {
      "anonymous": false,
      "inputs": [
        {
          "indexed": true,
          "internalType": "address",
          "name": "operator",
          "type": "address"
        },
        {
          "indexed": true,
          "internalType": "address",
          "name": "from",
          "type": "address"
        },
        {
          "indexed": true,
          "internalType": "address",
          "name": "to",
          "type": "address"
        },
        {
          "indexed": false,
          "internalType": "uint256",
          "name": "id",
          "type": "uint256"
        },
        {
          "indexed": false,
          "internalType": "uint256",
          "name": "value",
          "type": "uint256"
        }
      ],
      "name": "TransferSingle",
      "type": "event"
    },
    {
      "anonymous": false,
      "inputs": [
        {
          "indexed": false,
          "internalType": "string",
          "name": "value",
          "type": "string"
        },
        {
          "indexed": true,
          "internalType": "uint256",
          "name": "id",
          "type": "uint256"
        }
      ],
      "name": "URI",
      "type": "event"
    },
    {
      "anonymous": false,
      "inputs": [
        {
          "indexed": false,
          "internalType": "address",
          "name": "account",
          "type": "address"
        }
      ],
      "name": "Unpaused",
      "type": "event"
    },
    {
      "anonymous": false,
      "inputs": [
        {
          "indexed": true,
          "internalType": "address",
          "name": "implementation",
          "type": "address"
        }
      ],
      "name": "Upgraded",
      "type": "event"
    },
    {
      "inputs": [],
      "name": "DEFAULT_ADMIN_ROLE",
      "outputs": [
        {
          "internalType": "bytes32",
          "name": "",
          "type": "bytes32"
        }
      ],
      "stateMutability": "view",
      "type": "function"
    },
    {
      "inputs": [],
      "name": "MINTER_ROLE",
      "outputs": [
        {
          "internalType": "bytes32",
          "name": "",
          "type": "bytes32"
        }
      ],
      "stateMutability": "view",
      "type": "function"
    },
    {
      "inputs": [],
      "name": "PAUSER_ROLE",
      "outputs": [
        {
          "internalType": "bytes32",
          "name": "",
          "type": "bytes32"
        }
      ],
      "stateMutability": "view",
      "type": "function"
    },
    {
      "inputs": [],
      "name": "UPGRADER_ROLE",
      "outputs": [
        {
          "internalType": "bytes32",
          "name": "",
          "type": "bytes32"
        }
      ],
      "stateMutability": "view",
      "type": "function"
    },
    {
      "inputs": [],
      "name": "UPGRADE_INTERFACE_VERSION",
      "outputs": [
        {
          "internalType": "string",
          "name": "",
          "type": "string"
        }
      ],
      "stateMutability": "view",
      "type": "function"
    },
    {
      "inputs": [],
      "name": "URI_SETTER_ROLE",
      "outputs": [
        {
          "internalType": "bytes32",
          "name": "",
          "type": "bytes32"
        }
      ],
      "stateMutability": "view",
      "type": "function"
    },
    {
      "inputs": [
        {
          "internalType": "address",
          "name": "account",
          "type": "address"
        },
        {
          "internalType": "uint256",
          "name": "id",
          "type": "uint256"
        }
      ],
      "name": "balanceOf",
      "outputs": [
        {
          "internalType": "uint256",
          "name": "",
          "type": "uint256"
        }
      ],
      "stateMutability": "view",
      "type": "function"
    },
    {
      "inputs": [
        {
          "internalType": "address[]",
          "name": "accounts",
          "type": "address[]"
        },
        {
          "internalType": "uint256[]",
          "name": "ids",
          "type": "uint256[]"
        }
      ],
      "name": "balanceOfBatch",
      "outputs": [
        {
          "internalType": "uint256[]",
          "name": "",
          "type": "uint256[]"
        }
      ],
      "stateMutability": "view",
      "type": "function"
    },
    {
      "inputs": [
        {
          "internalType": "address",
          "name": "from",
          "type": "address"
        },
        {
          "internalType": "uint256",
          "name": "tokenId",
          "type": "uint256"
        },
        {
          "internalType": "uint256",
          "name": "amount",
          "type": "uint256"
        }
      ],
      "name": "burn",
      "outputs": [],
      "stateMutability": "nonpayable",
      "type": "function"
    },
    {
      "inputs": [
        {
          "internalType": "uint256",
          "name": "tokenId",
          "type": "uint256"
        },
        {
          "internalType": "enum ForgeInventory.TokenType",
          "name": "tokenType",
          "type": "uint8"
        },
        {
          "internalType": "string",
          "name": "category",
          "type": "string"
        },
        {
          "internalType": "string",
          "name": "subCategory",
          "type": "string"
        },
        {
          "internalType": "bool",
          "name": "soulbound",
          "type": "bool"
        },
        {
          "internalType": "uint256",
          "name": "maxSupply",
          "type": "uint256"
        },
        {
          "internalType": "string",
          "name": "tokenURI",
          "type": "string"
        }
      ],
      "name": "createToken",
      "outputs": [],
      "stateMutability": "nonpayable",
      "type": "function"
    },
    {
      "inputs": [
        {
          "internalType": "bytes32",
          "name": "role",
          "type": "bytes32"
        }
      ],
      "name": "getRoleAdmin",
      "outputs": [
        {
          "internalType": "bytes32",
          "name": "",
          "type": "bytes32"
        }
      ],
      "stateMutability": "view",
      "type": "function"
    },
    {
      "inputs": [
        {
          "internalType": "uint256",
          "name": "tokenId",
          "type": "uint256"
        }
      ],
      "name": "getTokenInfo",
      "outputs": [
        {
          "components": [
            {
              "internalType": "enum ForgeInventory.TokenType",
              "name": "tokenType",
              "type": "uint8"
            },
            {
              "internalType": "string",
              "name": "category",
              "type": "string"
            },
            {
              "internalType": "string",
              "name": "subCategory",
              "type": "string"
            },
            {
              "internalType": "bool",
              "name": "soulbound",
              "type": "bool"
            },
            {
              "internalType": "bool",
              "name": "exists",
              "type": "bool"
            },
            {
              "internalType": "uint256",
              "name": "maxSupply",
              "type": "uint256"
            },
            {
              "internalType": "uint256",
              "name": "currentSupply",
              "type": "uint256"
            }
          ],
          "internalType": "struct ForgeInventory.TokenInfo",
          "name": "",
          "type": "tuple"
        }
      ],
      "stateMutability": "view",
      "type": "function"
    },
    {
      "inputs": [
        {
          "internalType": "bytes32",
          "name": "role",
          "type": "bytes32"
        },
        {
          "internalType": "address",
          "name": "account",
          "type": "address"
        }
      ],
      "name": "grantRole",
      "outputs": [],
      "stateMutability": "nonpayable",
      "type": "function"
    },
    {
      "inputs": [
        {
          "internalType": "bytes32",
          "name": "role",
          "type": "bytes32"
        },
        {
          "internalType": "address",
          "name": "account",
          "type": "address"
        }
      ],
      "name": "hasRole",
      "outputs": [
        {
          "internalType": "bool",
          "name": "",
          "type": "bool"
        }
      ],
      "stateMutability": "view",
      "type": "function"
    },
    {
      "inputs": [
        {
          "internalType": "address",
          "name": "_defaultAdmin",
          "type": "address"
        },
        {
          "internalType": "address",
          "name": "_serverWallet",
          "type": "address"
        },
        {
          "internalType": "string",
          "name": "_baseURI",
          "type": "string"
        }
      ],
      "name": "initialize",
      "outputs": [],
      "stateMutability": "nonpayable",
      "type": "function"
    },
    {
      "inputs": [
        {
          "internalType": "address",
          "name": "account",
          "type": "address"
        },
        {
          "internalType": "address",
          "name": "operator",
          "type": "address"
        }
      ],
      "name": "isApprovedForAll",
      "outputs": [
        {
          "internalType": "bool",
          "name": "",
          "type": "bool"
        }
      ],
      "stateMutability": "view",
      "type": "function"
    },
    {
      "inputs": [
        {
          "internalType": "uint256",
          "name": "tokenId",
          "type": "uint256"
        }
      ],
      "name": "isSoulbound",
      "outputs": [
        {
          "internalType": "bool",
          "name": "",
          "type": "bool"
        }
      ],
      "stateMutability": "view",
      "type": "function"
    },
    {
      "inputs": [
        {
          "internalType": "address",
          "name": "to",
          "type": "address"
        },
        {
          "internalType": "uint256",
          "name": "tokenId",
          "type": "uint256"
        },
        {
          "internalType": "uint256",
          "name": "amount",
          "type": "uint256"
        },
        {
          "internalType": "bytes",
          "name": "data",
          "type": "bytes"
        }
      ],
      "name": "mint",
      "outputs": [],
      "stateMutability": "nonpayable",
      "type": "function"
    },
    {
      "inputs": [
        {
          "internalType": "address",
          "name": "to",
          "type": "address"
        },
        {
          "internalType": "uint256[]",
          "name": "tokenIds",
          "type": "uint256[]"
        },
        {
          "internalType": "uint256[]",
          "name": "amounts",
          "type": "uint256[]"
        },
        {
          "internalType": "bytes",
          "name": "data",
          "type": "bytes"
        }
      ],
      "name": "mintBatch",
      "outputs": [],
      "stateMutability": "nonpayable",
      "type": "function"
    },
    {
      "inputs": [
        {
          "internalType": "address",
          "name": "",
          "type": "address"
        },
        {
          "internalType": "uint256",
          "name": "",
          "type": "uint256"
        }
      ],
      "name": "nftOwnership",
      "outputs": [
        {
          "internalType": "bool",
          "name": "",
          "type": "bool"
        }
      ],
      "stateMutability": "view",
      "type": "function"
    },
    {
      "inputs": [],
      "name": "pause",
      "outputs": [],
      "stateMutability": "nonpayable",
      "type": "function"
    },
    {
      "inputs": [],
      "name": "paused",
      "outputs": [
        {
          "internalType": "bool",
          "name": "",
          "type": "bool"
        }
      ],
      "stateMutability": "view",
      "type": "function"
    },
    {
      "inputs": [],
      "name": "proxiableUUID",
      "outputs": [
        {
          "internalType": "bytes32",
          "name": "",
          "type": "bytes32"
        }
      ],
      "stateMutability": "view",
      "type": "function"
    },
    {
      "inputs": [
        {
          "internalType": "bytes32",
          "name": "role",
          "type": "bytes32"
        },
        {
          "internalType": "address",
          "name": "callerConfirmation",
          "type": "address"
        }
      ],
      "name": "renounceRole",
      "outputs": [],
      "stateMutability": "nonpayable",
      "type": "function"
    },
    {
      "inputs": [
        {
          "internalType": "bytes32",
          "name": "role",
          "type": "bytes32"
        },
        {
          "internalType": "address",
          "name": "account",
          "type": "address"
        }
      ],
      "name": "revokeRole",
      "outputs": [],
      "stateMutability": "nonpayable",
      "type": "function"
    },
    {
      "inputs": [
        {
          "internalType": "address",
          "name": "from",
          "type": "address"
        },
        {
          "internalType": "address",
          "name": "to",
          "type": "address"
        },
        {
          "internalType": "uint256[]",
          "name": "ids",
          "type": "uint256[]"
        },
        {
          "internalType": "uint256[]",
          "name": "amounts",
          "type": "uint256[]"
        },
        {
          "internalType": "bytes",
          "name": "data",
          "type": "bytes"
        }
      ],
      "name": "safeBatchTransferFrom",
      "outputs": [],
      "stateMutability": "nonpayable",
      "type": "function"
    },
    {
      "inputs": [
        {
          "internalType": "address",
          "name": "from",
          "type": "address"
        },
        {
          "internalType": "address",
          "name": "to",
          "type": "address"
        },
        {
          "internalType": "uint256",
          "name": "id",
          "type": "uint256"
        },
        {
          "internalType": "uint256",
          "name": "amount",
          "type": "uint256"
        },
        {
          "internalType": "bytes",
          "name": "data",
          "type": "bytes"
        }
      ],
      "name": "safeTransferFrom",
      "outputs": [],
      "stateMutability": "nonpayable",
      "type": "function"
    },
    {
      "inputs": [
        {
          "internalType": "address",
          "name": "operator",
          "type": "address"
        },
        {
          "internalType": "bool",
          "name": "approved",
          "type": "bool"
        }
      ],
      "name": "setApprovalForAll",
      "outputs": [],
      "stateMutability": "nonpayable",
      "type": "function"
    },
    {
      "inputs": [
        {
          "internalType": "uint256",
          "name": "tokenId",
          "type": "uint256"
        },
        {
          "internalType": "bool",
          "name": "soulbound",
          "type": "bool"
        }
      ],
      "name": "setSoulbound",
      "outputs": [],
      "stateMutability": "nonpayable",
      "type": "function"
    },
    {
      "inputs": [
        {
          "internalType": "uint256",
          "name": "tokenId",
          "type": "uint256"
        },
        {
          "internalType": "string",
          "name": "tokenURI",
          "type": "string"
        }
      ],
      "name": "setTokenURI",
      "outputs": [],
      "stateMutability": "nonpayable",
      "type": "function"
    },
    {
      "inputs": [
        {
          "internalType": "bytes4",
          "name": "interfaceId",
          "type": "bytes4"
        }
      ],
      "name": "supportsInterface",
      "outputs": [
        {
          "internalType": "bool",
          "name": "",
          "type": "bool"
        }
      ],
      "stateMutability": "view",
      "type": "function"
    },
    {
      "inputs": [
        {
          "internalType": "uint256",
          "name": "",
          "type": "uint256"
        }
      ],
      "name": "tokenInfo",
      "outputs": [
        {
          "internalType": "enum ForgeInventory.TokenType",
          "name": "tokenType",
          "type": "uint8"
        },
        {
          "internalType": "string",
          "name": "category",
          "type": "string"
        },
        {
          "internalType": "string",
          "name": "subCategory",
          "type": "string"
        },
        {
          "internalType": "bool",
          "name": "soulbound",
          "type": "bool"
        },
        {
          "internalType": "bool",
          "name": "exists",
          "type": "bool"
        },
        {
          "internalType": "uint256",
          "name": "maxSupply",
          "type": "uint256"
        },
        {
          "internalType": "uint256",
          "name": "currentSupply",
          "type": "uint256"
        }
      ],
      "stateMutability": "view",
      "type": "function"
    },
    {
      "inputs": [],
      "name": "unpause",
      "outputs": [],
      "stateMutability": "nonpayable",
      "type": "function"
    },
    {
      "inputs": [
        {
          "internalType": "address",
          "name": "newImplementation",
          "type": "address"
        },
        {
          "internalType": "bytes",
          "name": "data",
          "type": "bytes"
        }
      ],
      "name": "upgradeToAndCall",
      "outputs": [],
      "stateMutability": "payable",
      "type": "function"
    },
    {
      "inputs": [
        {
          "internalType": "uint256",
          "name": "tokenId",
          "type": "uint256"
        }
      ],
      "name": "uri",
      "outputs": [
        {
          "internalType": "string",
          "name": "",
          "type": "string"
        }
      ],
      "stateMutability": "view",
      "type": "function"
    }
  ],
  "bytecode": "0x60a06040523073ffffffffffffffffffffffffffffffffffffffff1660809073ffffffffffffffffffffffffffffffffffffffff16815250348015610042575f5ffd5b5061005161005660201b60201c565b6101d1565b5f61006561015460201b60201c565b9050805f0160089054906101000a900460ff16156100af576040517ff92ee8a900000000000000000000000000000000000000000000000000000000815260040160405180910390fd5b67ffffffffffffffff8016815f015f9054906101000a900467ffffffffffffffff1667ffffffffffffffff16146101515767ffffffffffffffff815f015f6101000a81548167ffffffffffffffff021916908367ffffffffffffffff1602179055507fc7f505b2f371ae2175ee4913f4499e1f2633a7b5936321eed1cdaeb6115181d267ffffffffffffffff60405161014891906101b8565b60405180910390a15b50565b5f5f61016461016d60201b60201c565b90508091505090565b5f7ff0c57e16840df040f15088dc2f81fe391c3923bec73e23a9662efc9c229c6a005f1b905090565b5f67ffffffffffffffff82169050919050565b6101b281610196565b82525050565b5f6020820190506101cb5f8301846101a9565b92915050565b608051615b256101f75f395f8181612b6f01528181612bc40152612da10152615b255ff3fe608060405260043610610202575f3560e01c80637f34571011610117578063cc33c8751161009f578063e63ab1e91161006e578063e63ab1e914610760578063e985e9c51461078a578063f242432a146107c6578063f5298aca146107ee578063f72c0d8b1461081657610202565b8063cc33c875146106a4578063d5391393146106e6578063d547741f14610710578063de02fe351461073857610202565b806391d14854116100e657806391d14854146105c4578063966d964b14610600578063a217fddf14610628578063a22cb46514610652578063ad3cb1cc1461067a57610202565b80637f3457101461050c5780638456cb59146105365780638c7a63ae1461054c578063911ec4701461058857610202565b806336568abe1161019a5780634f1ef286116101695780634f1ef2861461043857806352d1902d146104545780635b4b0da11461047e5780635c975abb146104ba578063731133e9146104e457610202565b806336568abe146103965780633f4ba83a146103be5780634571e3a6146103d45780634e1273f4146103fc57610202565b80631f7fdffa116101d65780631f7fdffa146102e2578063248a9ca31461030a5780632eb2c2d6146103465780632f2ff15d1461036e57610202565b8062fdd58e1461020657806301ffc9a7146102425780630e89341c1461027e578063162094c4146102ba575b5f5ffd5b348015610211575f5ffd5b5061022c60048036038101906102279190614331565b610840565b604051610239919061437e565b60405180910390f35b34801561024d575f5ffd5b50610268600480360381019061026391906143ec565b6108a3565b6040516102759190614431565b60405180910390f35b348015610289575f5ffd5b506102a4600480360381019061029f919061444a565b6108b4565b6040516102b191906144e5565b60405180910390f35b3480156102c5575f5ffd5b506102e060048036038101906102db9190614631565b61098b565b005b3480156102ed575f5ffd5b50610308600480360381019061030391906147ed565b610a73565b005b348015610315575f5ffd5b50610330600480360381019061032b91906148d8565b610ee7565b60405161033d9190614912565b60405180910390f35b348015610351575f5ffd5b5061036c6004803603810190610367919061492b565b610f11565b005b348015610379575f5ffd5b50610394600480360381019061038f91906149f6565b611136565b005b3480156103a1575f5ffd5b506103bc60048036038101906103b791906149f6565b611158565b005b3480156103c9575f5ffd5b506103d26111d3565b005b3480156103df575f5ffd5b506103fa60048036038101906103f59190614a34565b611208565b005b348015610407575f5ffd5b50610422600480360381019061041d9190614b60565b61148f565b60405161042f9190614c8d565b60405180910390f35b610452600480360381019061044d9190614cad565b611599565b005b34801561045f575f5ffd5b506104686115b8565b6040516104759190614912565b60405180910390f35b348015610489575f5ffd5b506104a4600480360381019061049f9190614331565b6115e9565b6040516104b19190614431565b60405180910390f35b3480156104c5575f5ffd5b506104ce611613565b6040516104db9190614431565b60405180910390f35b3480156104ef575f5ffd5b5061050a60048036038101906105059190614d07565b611635565b005b348015610517575f5ffd5b50610520611911565b60405161052d9190614912565b60405180910390f35b348015610541575f5ffd5b5061054a611935565b005b348015610557575f5ffd5b50610572600480360381019061056d919061444a565b61196a565b60405161057f9190614ef1565b60405180910390f35b348015610593575f5ffd5b506105ae60048036038101906105a9919061444a565b611b36565b6040516105bb9190614431565b60405180910390f35b3480156105cf575f5ffd5b506105ea60048036038101906105e591906149f6565b611b5e565b6040516105f79190614431565b60405180910390f35b34801561060b575f5ffd5b5061062660048036038101906106219190614f3b565b611bcf565b005b348015610633575f5ffd5b5061063c611ca4565b6040516106499190614912565b60405180910390f35b34801561065d575f5ffd5b5061067860048036038101906106739190614f79565b611caa565b005b348015610685575f5ffd5b5061068e611cc0565b60405161069b91906144e5565b60405180910390f35b3480156106af575f5ffd5b506106ca60048036038101906106c5919061444a565b611cf9565b6040516106dd9796959493929190614fc6565b60405180910390f35b3480156106f1575f5ffd5b506106fa611e67565b6040516107079190614912565b60405180910390f35b34801561071b575f5ffd5b50610736600480360381019061073191906149f6565b611e8b565b005b348015610743575f5ffd5b5061075e60048036038101906107599190615064565b611ead565b005b34801561076b575f5ffd5b506107746120f4565b6040516107819190614912565b60405180910390f35b348015610795575f5ffd5b506107b060048036038101906107ab9190615155565b612118565b6040516107bd9190614431565b60405180910390f35b3480156107d1575f5ffd5b506107ec60048036038101906107e79190615193565b6121b4565b005b3480156107f9575f5ffd5b50610814600480360381019061080f9190615226565b61233b565b005b348015610821575f5ffd5b5061082a612557565b6040516108379190614912565b60405180910390f35b5f5f61084a61257b565b9050805f015f8481526020019081526020015f205f8573ffffffffffffffffffffffffffffffffffffffff1673ffffffffffffffffffffffffffffffffffffffff1681526020019081526020015f205491505092915050565b5f6108ad826125a2565b9050919050565b60605f60015f8481526020019081526020015f2080546108d3906152a3565b9050111561097a5760015f8381526020019081526020015f2080546108f7906152a3565b80601f0160208091040260200160405190810160405280929190818152602001828054610923906152a3565b801561096e5780601f106109455761010080835404028352916020019161096e565b820191905f5260205f20905b81548152906001019060200180831161095157829003601f168201915b50505050509050610986565b6109838261261b565b90505b919050565b7f7804d923f43a17d325d77e781528e0793b2edd9890ab45fc64efd7b4b427744c6109b5816126bb565b5f5f8481526020019081526020015f2060030160019054906101000a900460ff16610a1757826040517fc927e5bf000000000000000000000000000000000000000000000000000000008152600401610a0e919061437e565b60405180910390fd5b8160015f8581526020019081526020015f209081610a359190615473565b50827fda84ca2183491f179a603e877b2cb058e42195041c2b9c53d746427e519a34df83604051610a6691906144e5565b60405180910390a2505050565b7f9f2df0fed2c77648de5860a4cc508cd0818c85b8b8a1ab4ceeef8d981c8956a6610a9d816126bb565b610aa56126cf565b8251845114610ae9576040517f08c379a0000000000000000000000000000000000000000000000000000000008152600401610ae09061558c565b60405180910390fd5b5f5f90505b8451811015610ecb575f5f5f878481518110610b0d57610b0c6155aa565b5b602002602001015181526020019081526020015f2090508060030160019054906101000a900460ff16610b9157858281518110610b4d57610b4c6155aa565b5b60200260200101516040517fc927e5bf000000000000000000000000000000000000000000000000000000008152600401610b88919061437e565b60405180910390fd5b5f8160040154118015610bd057508060040154858381518110610bb757610bb66155aa565b5b60200260200101518260050154610bce9190615604565b115b15610c5d57858281518110610be857610be76155aa565b5b6020026020010151858381518110610c0357610c026155aa565b5b602002602001015182600501548360040154610c1f9190615637565b6040517fb14d3f5b000000000000000000000000000000000000000000000000000000008152600401610c549392919061566a565b60405180910390fd5b600180811115610c7057610c6f614d87565b5b815f015f9054906101000a900460ff166001811115610c9257610c91614d87565b5b03610df5576001858381518110610cac57610cab6155aa565b5b602002602001015114610d1357858281518110610ccc57610ccb6155aa565b5b602002602001015160016040517f243e988b000000000000000000000000000000000000000000000000000000008152600401610d0a92919061569f565b60405180910390fd5b5f81600501541115610d7657858281518110610d3257610d316155aa565b5b60200260200101516040517f013e9e91000000000000000000000000000000000000000000000000000000008152600401610d6d919061437e565b60405180910390fd5b600160025f8973ffffffffffffffffffffffffffffffffffffffff1673ffffffffffffffffffffffffffffffffffffffff1681526020019081526020015f205f888581518110610dc957610dc86155aa565b5b602002602001015181526020019081526020015f205f6101000a81548160ff0219169083151502179055505b848281518110610e0857610e076155aa565b5b6020026020010151816005015f828254610e229190615604565b92505081905550858281518110610e3c57610e3b6155aa565b5b60200260200101518773ffffffffffffffffffffffffffffffffffffffff167fc0d0df51781b7fcb489c14b521ff659c33f0ffdcc1e2f0283c7328234d07713b878581518110610e8f57610e8e6155aa565b5b6020026020010151845f015f9054906101000a900460ff16604051610eb592919061569f565b60405180910390a3508080600101915050610aee565b50610ed885858585612723565b610ee06127a6565b5050505050565b5f5f610ef16127bd565b9050805f015f8481526020019081526020015f2060010154915050919050565b5f5f90505b8351811015611121575f5f858381518110610f3457610f336155aa565b5b602002602001015181526020019081526020015f206003015f9054906101000a900460ff1615610fb557838181518110610f7157610f706155aa565b5b60200260200101516040517f60a262a5000000000000000000000000000000000000000000000000000000008152600401610fac919061437e565b60405180910390fd5b600180811115610fc857610fc7614d87565b5b5f5f868481518110610fdd57610fdc6155aa565b5b602002602001015181526020019081526020015f205f015f9054906101000a900460ff16600181111561101357611012614d87565b5b03611114575f60025f8873ffffffffffffffffffffffffffffffffffffffff1673ffffffffffffffffffffffffffffffffffffffff1681526020019081526020015f205f86848151811061106a576110696155aa565b5b602002602001015181526020019081526020015f205f6101000a81548160ff021916908315150217905550600160025f8773ffffffffffffffffffffffffffffffffffffffff1673ffffffffffffffffffffffffffffffffffffffff1681526020019081526020015f205f8684815181106110e8576110e76155aa565b5b602002602001015181526020019081526020015f205f6101000a81548160ff0219169083151502179055505b8080600101915050610f16565b5061112f85858585856127e4565b5050505050565b61113f82610ee7565b611148816126bb565b611152838361288b565b50505050565b611160612983565b73ffffffffffffffffffffffffffffffffffffffff168173ffffffffffffffffffffffffffffffffffffffff16146111c4576040517f6697b23200000000000000000000000000000000000000000000000000000000815260040160405180910390fd5b6111ce828261298a565b505050565b7f65d7a28e3265b37a6474929f336521b332c1681b933f6cb9f3376673440d862a6111fd816126bb565b611205612a82565b50565b5f611211612af0565b90505f815f0160089054906101000a900460ff161590505f825f015f9054906101000a900467ffffffffffffffff1690505f5f8267ffffffffffffffff161480156112595750825b90505f60018367ffffffffffffffff1614801561128c57505f3073ffffffffffffffffffffffffffffffffffffffff163b145b90508115801561129a575080155b156112d1576040517ff92ee8a900000000000000000000000000000000000000000000000000000000815260040160405180910390fd5b6001855f015f6101000a81548167ffffffffffffffff021916908367ffffffffffffffff160217905550831561131e576001855f0160086101000a81548160ff0219169083151502179055505b61132786612b03565b61132f612b17565b611337612b21565b61133f612b2b565b611347612b3d565b6113535f5f1b8961288b565b5061137e7f9f2df0fed2c77648de5860a4cc508cd0818c85b8b8a1ab4ceeef8d981c8956a68861288b565b506113a97f65d7a28e3265b37a6474929f336521b332c1681b933f6cb9f3376673440d862a8961288b565b506113d47f189ab7a9244df0848122154315af71fe140f3db0fe014031783b0946b8c9d2e38961288b565b506113ff7f7804d923f43a17d325d77e781528e0793b2edd9890ab45fc64efd7b4b427744c8961288b565b5061142a7f7804d923f43a17d325d77e781528e0793b2edd9890ab45fc64efd7b4b427744c8861288b565b508315611485575f855f0160086101000a81548160ff0219169083151502179055507fc7f505b2f371ae2175ee4913f4499e1f2633a7b5936321eed1cdaeb6115181d2600160405161147c9190615712565b60405180910390a15b5050505050505050565b606081518351146114db57815183516040517f5b0599910000000000000000000000000000000000000000000000000000000081526004016114d292919061572b565b60405180910390fd5b5f835167ffffffffffffffff8111156114f7576114f661450d565b5b6040519080825280602002602001820160405280156115255781602001602082028036833780820191505090505b5090505f5f90505b845181101561158e5761156461154c8287612b4790919063ffffffff16565b61155f8387612b5a90919063ffffffff16565b610840565b828281518110611577576115766155aa565b5b60200260200101818152505080600101905061152d565b508091505092915050565b6115a1612b6d565b6115aa82612c53565b6115b48282612c81565b5050565b5f6115c1612d9f565b7f360894a13ba1a3210667c828492db98dca3e2076cc3735a920a3ca505d382bbc5f1b905090565b6002602052815f5260405f20602052805f5260405f205f915091509054906101000a900460ff1681565b5f5f61161d612e26565b9050805f015f9054906101000a900460ff1691505090565b7f9f2df0fed2c77648de5860a4cc508cd0818c85b8b8a1ab4ceeef8d981c8956a661165f816126bb565b6116676126cf565b5f5f5f8681526020019081526020015f2090508060030160019054906101000a900460ff166116cd57846040517fc927e5bf0000000000000000000000000000000000000000000000000000000081526004016116c4919061437e565b60405180910390fd5b5f81600401541180156116f2575080600401548482600501546116f09190615604565b115b1561174b5784848260050154836004015461170d9190615637565b6040517fb14d3f5b0000000000000000000000000000000000000000000000000000000081526004016117429392919061566a565b60405180910390fd5b60018081111561175e5761175d614d87565b5b815f015f9054906101000a900460ff1660018111156117805761177f614d87565b5b0361187b57600184146117cd578460016040517f243e988b0000000000000000000000000000000000000000000000000000000081526004016117c492919061569f565b60405180910390fd5b5f8160050154111561181657846040517f013e9e9100000000000000000000000000000000000000000000000000000000815260040161180d919061437e565b60405180910390fd5b600160025f8873ffffffffffffffffffffffffffffffffffffffff1673ffffffffffffffffffffffffffffffffffffffff1681526020019081526020015f205f8781526020019081526020015f205f6101000a81548160ff0219169083151502179055505b83816005015f82825461188e9190615604565b925050819055506118a186868686612e4d565b848673ffffffffffffffffffffffffffffffffffffffff167fc0d0df51781b7fcb489c14b521ff659c33f0ffdcc1e2f0283c7328234d07713b86845f015f9054906101000a900460ff166040516118f992919061569f565b60405180910390a35061190a6127a6565b5050505050565b7f7804d923f43a17d325d77e781528e0793b2edd9890ab45fc64efd7b4b427744c81565b7f65d7a28e3265b37a6474929f336521b332c1681b933f6cb9f3376673440d862a61195f816126bb565b611967612ee2565b50565b611972614245565b5f5f8381526020019081526020015f206040518060e00160405290815f82015f9054906101000a900460ff1660018111156119b0576119af614d87565b5b60018111156119c2576119c1614d87565b5b81526020016001820180546119d6906152a3565b80601f0160208091040260200160405190810160405280929190818152602001828054611a02906152a3565b8015611a4d5780601f10611a2457610100808354040283529160200191611a4d565b820191905f5260205f20905b815481529060010190602001808311611a3057829003601f168201915b50505050508152602001600282018054611a66906152a3565b80601f0160208091040260200160405190810160405280929190818152602001828054611a92906152a3565b8015611add5780601f10611ab457610100808354040283529160200191611add565b820191905f5260205f20905b815481529060010190602001808311611ac057829003601f168201915b50505050508152602001600382015f9054906101000a900460ff161515151581526020016003820160019054906101000a900460ff16151515158152602001600482015481526020016005820154815250509050919050565b5f5f5f8381526020019081526020015f206003015f9054906101000a900460ff169050919050565b5f5f611b686127bd565b9050805f015f8581526020019081526020015f205f015f8473ffffffffffffffffffffffffffffffffffffffff1673ffffffffffffffffffffffffffffffffffffffff1681526020019081526020015f205f9054906101000a900460ff1691505092915050565b5f5f1b611bdb816126bb565b5f5f8481526020019081526020015f2060030160019054906101000a900460ff16611c3d57826040517fc927e5bf000000000000000000000000000000000000000000000000000000008152600401611c34919061437e565b60405180910390fd5b815f5f8581526020019081526020015f206003015f6101000a81548160ff021916908315150217905550827fc3e8f137fddf52bd069912614ea1147dd6a0da5300b09693edf0ea0f99695cc783604051611c979190614431565b60405180910390a2505050565b5f5f1b81565b611cbc611cb5612983565b8383612f51565b5050565b6040518060400160405280600581526020017f352e302e3000000000000000000000000000000000000000000000000000000081525081565b5f602052805f5260405f205f91509050805f015f9054906101000a900460ff1690806001018054611d29906152a3565b80601f0160208091040260200160405190810160405280929190818152602001828054611d55906152a3565b8015611da05780601f10611d7757610100808354040283529160200191611da0565b820191905f5260205f20905b815481529060010190602001808311611d8357829003601f168201915b505050505090806002018054611db5906152a3565b80601f0160208091040260200160405190810160405280929190818152602001828054611de1906152a3565b8015611e2c5780601f10611e0357610100808354040283529160200191611e2c565b820191905f5260205f20905b815481529060010190602001808311611e0f57829003601f168201915b505050505090806003015f9054906101000a900460ff16908060030160019054906101000a900460ff16908060040154908060050154905087565b7f9f2df0fed2c77648de5860a4cc508cd0818c85b8b8a1ab4ceeef8d981c8956a681565b611e9482610ee7565b611e9d816126bb565b611ea7838361298a565b50505050565b7f9f2df0fed2c77648de5860a4cc508cd0818c85b8b8a1ab4ceeef8d981c8956a6611ed7816126bb565b5f5f8981526020019081526020015f2060030160019054906101000a900460ff1615611f3a57876040517fc927e5bf000000000000000000000000000000000000000000000000000000008152600401611f31919061437e565b60405180910390fd5b6040518060e00160405280886001811115611f5857611f57614d87565b5b815260200187815260200186815260200185151581526020016001151581526020018481526020015f8152505f5f8a81526020019081526020015f205f820151815f015f6101000a81548160ff02191690836001811115611fbc57611fbb614d87565b5b02179055506020820151816001019081611fd69190615473565b506040820151816002019081611fec9190615473565b506060820151816003015f6101000a81548160ff02191690831515021790555060808201518160030160016101000a81548160ff02191690831515021790555060a0820151816004015560c082015181600501559050505f8251111561206c578160015f8a81526020019081526020015f20908161206a9190615473565b505b877f51837658d744b89637d1deac3cfc1d93e4d2898569f3a3682bbb9ea40fa32adb8888886040516120a093929190615752565b60405180910390a25f825111156120ea57877fda84ca2183491f179a603e877b2cb058e42195041c2b9c53d746427e519a34df836040516120e191906144e5565b60405180910390a25b5050505050505050565b7f65d7a28e3265b37a6474929f336521b332c1681b933f6cb9f3376673440d862a81565b5f5f61212261257b565b9050806001015f8573ffffffffffffffffffffffffffffffffffffffff1673ffffffffffffffffffffffffffffffffffffffff1681526020019081526020015f205f8473ffffffffffffffffffffffffffffffffffffffff1673ffffffffffffffffffffffffffffffffffffffff1681526020019081526020015f205f9054906101000a900460ff1691505092915050565b5f5f8481526020019081526020015f206003015f9054906101000a900460ff161561221657826040517f60a262a500000000000000000000000000000000000000000000000000000000815260040161220d919061437e565b60405180910390fd5b60018081111561222957612228614d87565b5b5f5f8581526020019081526020015f205f015f9054906101000a900460ff16600181111561225a57612259614d87565b5b03612327575f60025f8773ffffffffffffffffffffffffffffffffffffffff1673ffffffffffffffffffffffffffffffffffffffff1681526020019081526020015f205f8581526020019081526020015f205f6101000a81548160ff021916908315150217905550600160025f8673ffffffffffffffffffffffffffffffffffffffff1673ffffffffffffffffffffffffffffffffffffffff1681526020019081526020015f205f8581526020019081526020015f205f6101000a81548160ff0219169083151502179055505b61233485858585856130c8565b5050505050565b612343612983565b73ffffffffffffffffffffffffffffffffffffffff168373ffffffffffffffffffffffffffffffffffffffff161480612389575061238883612383612983565b612118565b5b6123c8576040517f08c379a00000000000000000000000000000000000000000000000000000000081526004016123bf90615805565b60405180910390fd5b5f5f5f8481526020019081526020015f2090508060030160019054906101000a900460ff1661242e57826040517fc927e5bf000000000000000000000000000000000000000000000000000000008152600401612425919061437e565b60405180910390fd5b60018081111561244157612440614d87565b5b815f015f9054906101000a900460ff16600181111561246357612462614d87565b5b036124cc575f60025f8673ffffffffffffffffffffffffffffffffffffffff1673ffffffffffffffffffffffffffffffffffffffff1681526020019081526020015f205f8581526020019081526020015f205f6101000a81548160ff0219169083151502179055505b81816005015f8282546124df9190615637565b925050819055506124f184848461316f565b828473ffffffffffffffffffffffffffffffffffffffff167ff0c88901074266fdaae676a871361bd8b0ad6358c0cf811aa6bd7c58363cff2b84845f015f9054906101000a900460ff1660405161254992919061569f565b60405180910390a350505050565b7f189ab7a9244df0848122154315af71fe140f3db0fe014031783b0946b8c9d2e381565b5f7f88be536d5240c274a3b1d3a1be54482fd9caa294f08c62a7cde569f49a3c4500905090565b5f7f7965db0b000000000000000000000000000000000000000000000000000000007bffffffffffffffffffffffffffffffffffffffffffffffffffffffff1916827bffffffffffffffffffffffffffffffffffffffffffffffffffffffff19161480612614575061261382613211565b5b9050919050565b60605f61262661257b565b9050806002018054612637906152a3565b80601f0160208091040260200160405190810160405280929190818152602001828054612663906152a3565b80156126ae5780601f10612685576101008083540402835291602001916126ae565b820191905f5260205f20905b81548152906001019060200180831161269157829003601f168201915b5050505050915050919050565b6126cc816126c7612983565b6132f2565b50565b5f6126d8613343565b90506002815f015403612717576040517f3ee5aeb500000000000000000000000000000000000000000000000000000000815260040160405180910390fd5b6002815f018190555050565b5f73ffffffffffffffffffffffffffffffffffffffff168473ffffffffffffffffffffffffffffffffffffffff1603612793575f6040517f57f447ce00000000000000000000000000000000000000000000000000000000815260040161278a9190615832565b60405180910390fd5b6127a05f8585858561336a565b50505050565b5f6127af613343565b90506001815f018190555050565b5f7f02dd7bc7dec4dceedda775e58dd541e08a116c6c53815c0bd028192f7b626800905090565b5f6127ed612983565b90508073ffffffffffffffffffffffffffffffffffffffff168673ffffffffffffffffffffffffffffffffffffffff161415801561283257506128308682612118565b155b156128765780866040517fe237d92200000000000000000000000000000000000000000000000000000000815260040161286d92919061584b565b60405180910390fd5b6128838686868686613416565b505050505050565b5f5f6128956127bd565b90506128a18484611b5e565b612978576001815f015f8681526020019081526020015f205f015f8573ffffffffffffffffffffffffffffffffffffffff1673ffffffffffffffffffffffffffffffffffffffff1681526020019081526020015f205f6101000a81548160ff021916908315150217905550612914612983565b73ffffffffffffffffffffffffffffffffffffffff168373ffffffffffffffffffffffffffffffffffffffff16857f2f8788117e7eff1d82e926ec794901d17c78024a50270940304540a733656f0d60405160405180910390a4600191505061297d565b5f9150505b92915050565b5f33905090565b5f5f6129946127bd565b90506129a08484611b5e565b15612a77575f815f015f8681526020019081526020015f205f015f8573ffffffffffffffffffffffffffffffffffffffff1673ffffffffffffffffffffffffffffffffffffffff1681526020019081526020015f205f6101000a81548160ff021916908315150217905550612a13612983565b73ffffffffffffffffffffffffffffffffffffffff168373ffffffffffffffffffffffffffffffffffffffff16857ff6391f5c32d9c69d2a47ea670b442974b53935d1edc7fd64eb21e047a839171b60405160405180910390a46001915050612a7c565b5f9150505b92915050565b612a8a61350a565b5f612a93612e26565b90505f815f015f6101000a81548160ff0219169083151502179055507f5db9ee0a495bf2e6ff9c91a7834c1ba4fdd244a5e8aa4e537bd38aeae4b073aa612ad8612983565b604051612ae59190615832565b60405180910390a150565b5f5f612afa61354a565b90508091505090565b612b0b613573565b612b14816135b3565b50565b612b1f613573565b565b612b29613573565b565b612b33613573565b612b3b6135c7565b565b612b45613573565b565b5f60208202602084010151905092915050565b5f60208202602084010151905092915050565b7f000000000000000000000000000000000000000000000000000000000000000073ffffffffffffffffffffffffffffffffffffffff163073ffffffffffffffffffffffffffffffffffffffff161480612c1a57507f000000000000000000000000000000000000000000000000000000000000000073ffffffffffffffffffffffffffffffffffffffff16612c016135e6565b73ffffffffffffffffffffffffffffffffffffffff1614155b15612c51576040517fe07c8dba00000000000000000000000000000000000000000000000000000000815260040160405180910390fd5b565b7f189ab7a9244df0848122154315af71fe140f3db0fe014031783b0946b8c9d2e3612c7d816126bb565b5050565b8173ffffffffffffffffffffffffffffffffffffffff166352d1902d6040518163ffffffff1660e01b8152600401602060405180830381865afa925050508015612ce957506040513d601f19601f82011682018060405250810190612ce69190615886565b60015b612d2a57816040517f4c9c8ce3000000000000000000000000000000000000000000000000000000008152600401612d219190615832565b60405180910390fd5b7f360894a13ba1a3210667c828492db98dca3e2076cc3735a920a3ca505d382bbc5f1b8114612d9057806040517faa1d49a4000000000000000000000000000000000000000000000000000000008152600401612d879190614912565b60405180910390fd5b612d9a8383613639565b505050565b7f000000000000000000000000000000000000000000000000000000000000000073ffffffffffffffffffffffffffffffffffffffff163073ffffffffffffffffffffffffffffffffffffffff1614612e24576040517fe07c8dba00000000000000000000000000000000000000000000000000000000815260040160405180910390fd5b565b5f7fcd5ed15c6e187e77e9aee88184c21f4f2182ab5827cb3b7e07fbedcd63f03300905090565b5f73ffffffffffffffffffffffffffffffffffffffff168473ffffffffffffffffffffffffffffffffffffffff1603612ebd575f6040517f57f447ce000000000000000000000000000000000000000000000000000000008152600401612eb49190615832565b60405180910390fd5b5f5f612ec985856136ab565b91509150612eda5f8784848761336a565b505050505050565b612eea6136db565b5f612ef3612e26565b90506001815f015f6101000a81548160ff0219169083151502179055507f62e78cea01bee320cd4e420270b5ea74000d11b0c9f74754ebdbfc544b05a258612f39612983565b604051612f469190615832565b60405180910390a150565b5f612f5a61257b565b90505f73ffffffffffffffffffffffffffffffffffffffff168373ffffffffffffffffffffffffffffffffffffffff1603612fcc575f6040517fced3e100000000000000000000000000000000000000000000000000000000008152600401612fc39190615832565b60405180910390fd5b81816001015f8673ffffffffffffffffffffffffffffffffffffffff1673ffffffffffffffffffffffffffffffffffffffff1681526020019081526020015f205f8573ffffffffffffffffffffffffffffffffffffffff1673ffffffffffffffffffffffffffffffffffffffff1681526020019081526020015f205f6101000a81548160ff0219169083151502179055508273ffffffffffffffffffffffffffffffffffffffff168473ffffffffffffffffffffffffffffffffffffffff167f17307eab39ab6107e8899845ad3d59bd9653f200f220920489ca2b5937696c31846040516130ba9190614431565b60405180910390a350505050565b5f6130d1612983565b90508073ffffffffffffffffffffffffffffffffffffffff168673ffffffffffffffffffffffffffffffffffffffff161415801561311657506131148682612118565b155b1561315a5780866040517fe237d92200000000000000000000000000000000000000000000000000000000815260040161315192919061584b565b60405180910390fd5b613167868686868661371c565b505050505050565b5f73ffffffffffffffffffffffffffffffffffffffff168373ffffffffffffffffffffffffffffffffffffffff16036131df575f6040517f01a835140000000000000000000000000000000000000000000000000000000081526004016131d69190615832565b60405180910390fd5b5f5f6131eb84846136ab565b9150915061320a855f848460405180602001604052805f81525061336a565b5050505050565b5f7fd9b67a26000000000000000000000000000000000000000000000000000000007bffffffffffffffffffffffffffffffffffffffffffffffffffffffff1916827bffffffffffffffffffffffffffffffffffffffffffffffffffffffff191614806132db57507f0e89341c000000000000000000000000000000000000000000000000000000007bffffffffffffffffffffffffffffffffffffffffffffffffffffffff1916827bffffffffffffffffffffffffffffffffffffffffffffffffffffffff1916145b806132eb57506132ea82613822565b5b9050919050565b6132fc8282611b5e565b61333f5780826040517fe2517d3f0000000000000000000000000000000000000000000000000000000081526004016133369291906158b1565b60405180910390fd5b5050565b5f7f9b779b17422d0df92223018b32b4d1fa46e071723d6817e2486d003becc55f00905090565b6133768585858561388b565b5f73ffffffffffffffffffffffffffffffffffffffff168473ffffffffffffffffffffffffffffffffffffffff161461340f575f6133b2612983565b905060018451036133fe575f6133d15f86612b5a90919063ffffffff16565b90505f6133e75f86612b5a90919063ffffffff16565b90506133f78389898585896138a5565b505061340d565b61340c818787878787613a54565b5b505b5050505050565b5f73ffffffffffffffffffffffffffffffffffffffff168473ffffffffffffffffffffffffffffffffffffffff1603613486575f6040517f57f447ce00000000000000000000000000000000000000000000000000000000815260040161347d9190615832565b60405180910390fd5b5f73ffffffffffffffffffffffffffffffffffffffff168573ffffffffffffffffffffffffffffffffffffffff16036134f6575f6040517f01a835140000000000000000000000000000000000000000000000000000000081526004016134ed9190615832565b60405180910390fd5b613503858585858561336a565b5050505050565b613512611613565b613548576040517f8dfc202b00000000000000000000000000000000000000000000000000000000815260040160405180910390fd5b565b5f7ff0c57e16840df040f15088dc2f81fe391c3923bec73e23a9662efc9c229c6a005f1b905090565b61357b613c03565b6135b1576040517fd7e6bcf800000000000000000000000000000000000000000000000000000000815260040160405180910390fd5b565b6135bb613573565b6135c481613c21565b50565b6135cf613573565b5f6135d8613343565b90506001815f018190555050565b5f6136127f360894a13ba1a3210667c828492db98dca3e2076cc3735a920a3ca505d382bbc5f1b613c42565b5f015f9054906101000a900473ffffffffffffffffffffffffffffffffffffffff16905090565b61364282613c4b565b8173ffffffffffffffffffffffffffffffffffffffff167fbc7cd75a20ee27fd9adebab32041f755214dbc6bffa90cc0225b39da2e5c2d3b60405160405180910390a25f8151111561369e576136988282613d14565b506136a7565b6136a6613d94565b5b5050565b60608060405191506001825283602083015260408201905060018152826020820152604081016040529250929050565b6136e3611613565b1561371a576040517fd93c066500000000000000000000000000000000000000000000000000000000815260040160405180910390fd5b565b5f73ffffffffffffffffffffffffffffffffffffffff168473ffffffffffffffffffffffffffffffffffffffff160361378c575f6040517f57f447ce0000000000000000000000000000000000000000000000000000000081526004016137839190615832565b60405180910390fd5b5f73ffffffffffffffffffffffffffffffffffffffff168573ffffffffffffffffffffffffffffffffffffffff16036137fc575f6040517f01a835140000000000000000000000000000000000000000000000000000000081526004016137f39190615832565b60405180910390fd5b5f5f61380885856136ab565b91509150613819878784848761336a565b50505050505050565b5f7f01ffc9a7000000000000000000000000000000000000000000000000000000007bffffffffffffffffffffffffffffffffffffffffffffffffffffffff1916827bffffffffffffffffffffffffffffffffffffffffffffffffffffffff1916149050919050565b6138936136db565b61389f84848484613dd0565b50505050565b5f8473ffffffffffffffffffffffffffffffffffffffff163b1115613a4c578373ffffffffffffffffffffffffffffffffffffffff1663f23a6e6187878686866040518663ffffffff1660e01b815260040161390595949392919061592a565b6020604051808303815f875af192505050801561394057506040513d601f19601f8201168201806040525081019061393d9190615996565b60015b6139c1573d805f811461396e576040519150601f19603f3d011682016040523d82523d5f602084013e613973565b606091505b505f8151036139b957846040517f57f447ce0000000000000000000000000000000000000000000000000000000081526004016139b09190615832565b60405180910390fd5b805160208201fd5b63f23a6e6160e01b7bffffffffffffffffffffffffffffffffffffffffffffffffffffffff1916817bffffffffffffffffffffffffffffffffffffffffffffffffffffffff191614613a4a57846040517f57f447ce000000000000000000000000000000000000000000000000000000008152600401613a419190615832565b60405180910390fd5b505b505050505050565b5f8473ffffffffffffffffffffffffffffffffffffffff163b1115613bfb578373ffffffffffffffffffffffffffffffffffffffff1663bc197c8187878686866040518663ffffffff1660e01b8152600401613ab49594939291906159c1565b6020604051808303815f875af1925050508015613aef57506040513d601f19601f82011682018060405250810190613aec9190615996565b60015b613b70573d805f8114613b1d576040519150601f19603f3d011682016040523d82523d5f602084013e613b22565b606091505b505f815103613b6857846040517f57f447ce000000000000000000000000000000000000000000000000000000008152600401613b5f9190615832565b60405180910390fd5b805160208201fd5b63bc197c8160e01b7bffffffffffffffffffffffffffffffffffffffffffffffffffffffff1916817bffffffffffffffffffffffffffffffffffffffffffffffffffffffff191614613bf957846040517f57f447ce000000000000000000000000000000000000000000000000000000008152600401613bf09190615832565b60405180910390fd5b505b505050505050565b5f613c0c612af0565b5f0160089054906101000a900460ff16905090565b5f613c2a61257b565b905081816002019081613c3d9190615473565b505050565b5f819050919050565b5f8173ffffffffffffffffffffffffffffffffffffffff163b03613ca657806040517f4c9c8ce3000000000000000000000000000000000000000000000000000000008152600401613c9d9190615832565b60405180910390fd5b80613cd27f360894a13ba1a3210667c828492db98dca3e2076cc3735a920a3ca505d382bbc5f1b613c42565b5f015f6101000a81548173ffffffffffffffffffffffffffffffffffffffff021916908373ffffffffffffffffffffffffffffffffffffffff16021790555050565b60605f5f8473ffffffffffffffffffffffffffffffffffffffff1684604051613d3d9190615a61565b5f60405180830381855af49150503d805f8114613d75576040519150601f19603f3d011682016040523d82523d5f602084013e613d7a565b606091505b5091509150613d8a858383614175565b9250505092915050565b5f341115613dce576040517fb398979f00000000000000000000000000000000000000000000000000000000815260040160405180910390fd5b565b5f613dd961257b565b90508151835114613e2557825182516040517f5b059991000000000000000000000000000000000000000000000000000000008152600401613e1c92919061572b565b60405180910390fd5b5f613e2e612983565b90505f5f90505b8451811015614033575f613e528287612b5a90919063ffffffff16565b90505f613e688387612b5a90919063ffffffff16565b90505f73ffffffffffffffffffffffffffffffffffffffff168973ffffffffffffffffffffffffffffffffffffffff1614613f8f575f855f015f8481526020019081526020015f205f8b73ffffffffffffffffffffffffffffffffffffffff1673ffffffffffffffffffffffffffffffffffffffff1681526020019081526020015f2054905081811015613f3957898183856040517f03dee4c5000000000000000000000000000000000000000000000000000000008152600401613f309493929190615a77565b60405180910390fd5b818103865f015f8581526020019081526020015f205f8c73ffffffffffffffffffffffffffffffffffffffff1673ffffffffffffffffffffffffffffffffffffffff1681526020019081526020015f2081905550505b5f73ffffffffffffffffffffffffffffffffffffffff168873ffffffffffffffffffffffffffffffffffffffff16146140265780855f015f8481526020019081526020015f205f8a73ffffffffffffffffffffffffffffffffffffffff1673ffffffffffffffffffffffffffffffffffffffff1681526020019081526020015f205f82825461401e9190615604565b925050819055505b5050806001019050613e35565b5060018451036140ee575f6140515f86612b5a90919063ffffffff16565b90505f6140675f86612b5a90919063ffffffff16565b90508673ffffffffffffffffffffffffffffffffffffffff168873ffffffffffffffffffffffffffffffffffffffff168473ffffffffffffffffffffffffffffffffffffffff167fc3d58168c5ae7397731d063d5bbf3d657854427343f4c083240f7aacaa2d0f6285856040516140df92919061572b565b60405180910390a4505061416d565b8473ffffffffffffffffffffffffffffffffffffffff168673ffffffffffffffffffffffffffffffffffffffff168273ffffffffffffffffffffffffffffffffffffffff167f4a39dc06d4c0dbc64b70af90fd698a233a518aa5d07e595d983b8c0526c8f7fb8787604051614164929190615aba565b60405180910390a45b505050505050565b60608261418a5761418582614202565b6141fa565b5f82511480156141b057505f8473ffffffffffffffffffffffffffffffffffffffff163b145b156141f257836040517f9996b3150000000000000000000000000000000000000000000000000000000081526004016141e99190615832565b60405180910390fd5b8190506141fb565b5b9392505050565b5f8151111561421357805160208201fd5b6040517fd6bda27500000000000000000000000000000000000000000000000000000000815260040160405180910390fd5b6040518060e001604052805f600181111561426357614262614d87565b5b815260200160608152602001606081526020015f151581526020015f151581526020015f81526020015f81525090565b5f604051905090565b5f5ffd5b5f5ffd5b5f73ffffffffffffffffffffffffffffffffffffffff82169050919050565b5f6142cd826142a4565b9050919050565b6142dd816142c3565b81146142e7575f5ffd5b50565b5f813590506142f8816142d4565b92915050565b5f819050919050565b614310816142fe565b811461431a575f5ffd5b50565b5f8135905061432b81614307565b92915050565b5f5f604083850312156143475761434661429c565b5b5f614354858286016142ea565b92505060206143658582860161431d565b9150509250929050565b614378816142fe565b82525050565b5f6020820190506143915f83018461436f565b92915050565b5f7fffffffff0000000000000000000000000000000000000000000000000000000082169050919050565b6143cb81614397565b81146143d5575f5ffd5b50565b5f813590506143e6816143c2565b92915050565b5f602082840312156144015761440061429c565b5b5f61440e848285016143d8565b91505092915050565b5f8115159050919050565b61442b81614417565b82525050565b5f6020820190506144445f830184614422565b92915050565b5f6020828403121561445f5761445e61429c565b5b5f61446c8482850161431d565b91505092915050565b5f81519050919050565b5f82825260208201905092915050565b8281835e5f83830152505050565b5f601f19601f8301169050919050565b5f6144b782614475565b6144c1818561447f565b93506144d181856020860161448f565b6144da8161449d565b840191505092915050565b5f6020820190508181035f8301526144fd81846144ad565b905092915050565b5f5ffd5b5f5ffd5b7f4e487b71000000000000000000000000000000000000000000000000000000005f52604160045260245ffd5b6145438261449d565b810181811067ffffffffffffffff821117156145625761456161450d565b5b80604052505050565b5f614574614293565b9050614580828261453a565b919050565b5f67ffffffffffffffff82111561459f5761459e61450d565b5b6145a88261449d565b9050602081019050919050565b828183375f83830152505050565b5f6145d56145d084614585565b61456b565b9050828152602081018484840111156145f1576145f0614509565b5b6145fc8482856145b5565b509392505050565b5f82601f83011261461857614617614505565b5b81356146288482602086016145c3565b91505092915050565b5f5f604083850312156146475761464661429c565b5b5f6146548582860161431d565b925050602083013567ffffffffffffffff811115614675576146746142a0565b5b61468185828601614604565b9150509250929050565b5f67ffffffffffffffff8211156146a5576146a461450d565b5b602082029050602081019050919050565b5f5ffd5b5f6146cc6146c78461468b565b61456b565b905080838252602082019050602084028301858111156146ef576146ee6146b6565b5b835b818110156147185780614704888261431d565b8452602084019350506020810190506146f1565b5050509392505050565b5f82601f83011261473657614735614505565b5b81356147468482602086016146ba565b91505092915050565b5f67ffffffffffffffff8211156147695761476861450d565b5b6147728261449d565b9050602081019050919050565b5f61479161478c8461474f565b61456b565b9050828152602081018484840111156147ad576147ac614509565b5b6147b88482856145b5565b509392505050565b5f82601f8301126147d4576147d3614505565b5b81356147e484826020860161477f565b91505092915050565b5f5f5f5f608085870312156148055761480461429c565b5b5f614812878288016142ea565b945050602085013567ffffffffffffffff811115614833576148326142a0565b5b61483f87828801614722565b935050604085013567ffffffffffffffff8111156148605761485f6142a0565b5b61486c87828801614722565b925050606085013567ffffffffffffffff81111561488d5761488c6142a0565b5b614899878288016147c0565b91505092959194509250565b5f819050919050565b6148b7816148a5565b81146148c1575f5ffd5b50565b5f813590506148d2816148ae565b92915050565b5f602082840312156148ed576148ec61429c565b5b5f6148fa848285016148c4565b91505092915050565b61490c816148a5565b82525050565b5f6020820190506149255f830184614903565b92915050565b5f5f5f5f5f60a086880312156149445761494361429c565b5b5f614951888289016142ea565b9550506020614962888289016142ea565b945050604086013567ffffffffffffffff811115614983576149826142a0565b5b61498f88828901614722565b935050606086013567ffffffffffffffff8111156149b0576149af6142a0565b5b6149bc88828901614722565b925050608086013567ffffffffffffffff8111156149dd576149dc6142a0565b5b6149e9888289016147c0565b9150509295509295909350565b5f5f60408385031215614a0c57614a0b61429c565b5b5f614a19858286016148c4565b9250506020614a2a858286016142ea565b9150509250929050565b5f5f5f60608486031215614a4b57614a4a61429c565b5b5f614a58868287016142ea565b9350506020614a69868287016142ea565b925050604084013567ffffffffffffffff811115614a8a57614a896142a0565b5b614a9686828701614604565b9150509250925092565b5f67ffffffffffffffff821115614aba57614ab961450d565b5b602082029050602081019050919050565b5f614add614ad884614aa0565b61456b565b90508083825260208201905060208402830185811115614b0057614aff6146b6565b5b835b81811015614b295780614b1588826142ea565b845260208401935050602081019050614b02565b5050509392505050565b5f82601f830112614b4757614b46614505565b5b8135614b57848260208601614acb565b91505092915050565b5f5f60408385031215614b7657614b7561429c565b5b5f83013567ffffffffffffffff811115614b9357614b926142a0565b5b614b9f85828601614b33565b925050602083013567ffffffffffffffff811115614bc057614bbf6142a0565b5b614bcc85828601614722565b9150509250929050565b5f81519050919050565b5f82825260208201905092915050565b5f819050602082019050919050565b614c08816142fe565b82525050565b5f614c198383614bff565b60208301905092915050565b5f602082019050919050565b5f614c3b82614bd6565b614c458185614be0565b9350614c5083614bf0565b805f5b83811015614c80578151614c678882614c0e565b9750614c7283614c25565b925050600181019050614c53565b5085935050505092915050565b5f6020820190508181035f830152614ca58184614c31565b905092915050565b5f5f60408385031215614cc357614cc261429c565b5b5f614cd0858286016142ea565b925050602083013567ffffffffffffffff811115614cf157614cf06142a0565b5b614cfd858286016147c0565b9150509250929050565b5f5f5f5f60808587031215614d1f57614d1e61429c565b5b5f614d2c878288016142ea565b9450506020614d3d8782880161431d565b9350506040614d4e8782880161431d565b925050606085013567ffffffffffffffff811115614d6f57614d6e6142a0565b5b614d7b878288016147c0565b91505092959194509250565b7f4e487b71000000000000000000000000000000000000000000000000000000005f52602160045260245ffd5b60028110614dc557614dc4614d87565b5b50565b5f819050614dd582614db4565b919050565b5f614de482614dc8565b9050919050565b614df481614dda565b82525050565b5f82825260208201905092915050565b5f614e1482614475565b614e1e8185614dfa565b9350614e2e81856020860161448f565b614e378161449d565b840191505092915050565b614e4b81614417565b82525050565b5f60e083015f830151614e665f860182614deb565b5060208301518482036020860152614e7e8282614e0a565b91505060408301518482036040860152614e988282614e0a565b9150506060830151614ead6060860182614e42565b506080830151614ec06080860182614e42565b5060a0830151614ed360a0860182614bff565b5060c0830151614ee660c0860182614bff565b508091505092915050565b5f6020820190508181035f830152614f098184614e51565b905092915050565b614f1a81614417565b8114614f24575f5ffd5b50565b5f81359050614f3581614f11565b92915050565b5f5f60408385031215614f5157614f5061429c565b5b5f614f5e8582860161431d565b9250506020614f6f85828601614f27565b9150509250929050565b5f5f60408385031215614f8f57614f8e61429c565b5b5f614f9c858286016142ea565b9250506020614fad85828601614f27565b9150509250929050565b614fc081614dda565b82525050565b5f60e082019050614fd95f83018a614fb7565b8181036020830152614feb81896144ad565b90508181036040830152614fff81886144ad565b905061500e6060830187614422565b61501b6080830186614422565b61502860a083018561436f565b61503560c083018461436f565b98975050505050505050565b6002811061504d575f5ffd5b50565b5f8135905061505e81615041565b92915050565b5f5f5f5f5f5f5f60e0888a03121561507f5761507e61429c565b5b5f61508c8a828b0161431d565b975050602061509d8a828b01615050565b965050604088013567ffffffffffffffff8111156150be576150bd6142a0565b5b6150ca8a828b01614604565b955050606088013567ffffffffffffffff8111156150eb576150ea6142a0565b5b6150f78a828b01614604565b94505060806151088a828b01614f27565b93505060a06151198a828b0161431d565b92505060c088013567ffffffffffffffff81111561513a576151396142a0565b5b6151468a828b01614604565b91505092959891949750929550565b5f5f6040838503121561516b5761516a61429c565b5b5f615178858286016142ea565b9250506020615189858286016142ea565b9150509250929050565b5f5f5f5f5f60a086880312156151ac576151ab61429c565b5b5f6151b9888289016142ea565b95505060206151ca888289016142ea565b94505060406151db8882890161431d565b93505060606151ec8882890161431d565b925050608086013567ffffffffffffffff81111561520d5761520c6142a0565b5b615219888289016147c0565b9150509295509295909350565b5f5f5f6060848603121561523d5761523c61429c565b5b5f61524a868287016142ea565b935050602061525b8682870161431d565b925050604061526c8682870161431d565b9150509250925092565b7f4e487b71000000000000000000000000000000000000000000000000000000005f52602260045260245ffd5b5f60028204905060018216806152ba57607f821691505b6020821081036152cd576152cc615276565b5b50919050565b5f819050815f5260205f209050919050565b5f6020601f8301049050919050565b5f82821b905092915050565b5f6008830261532f7fffffffffffffffffffffffffffffffffffffffffffffffffffffffffffffffff826152f4565b61533986836152f4565b95508019841693508086168417925050509392505050565b5f819050919050565b5f61537461536f61536a846142fe565b615351565b6142fe565b9050919050565b5f819050919050565b61538d8361535a565b6153a16153998261537b565b848454615300565b825550505050565b5f5f905090565b6153b86153a9565b6153c3818484615384565b505050565b5b818110156153e6576153db5f826153b0565b6001810190506153c9565b5050565b601f82111561542b576153fc816152d3565b615405846152e5565b81016020851015615414578190505b615428615420856152e5565b8301826153c8565b50505b505050565b5f82821c905092915050565b5f61544b5f1984600802615430565b1980831691505092915050565b5f615463838361543c565b9150826002028217905092915050565b61547c82614475565b67ffffffffffffffff8111156154955761549461450d565b5b61549f82546152a3565b6154aa8282856153ea565b5f60209050601f8311600181146154db575f84156154c9578287015190505b6154d38582615458565b86555061553a565b601f1984166154e9866152d3565b5f5b82811015615510578489015182556001820191506020850194506020810190506154eb565b8683101561552d5784890151615529601f89168261543c565b8355505b6001600288020188555050505b505050505050565b7f417272617973206c656e677468206d69736d61746368000000000000000000005f82015250565b5f61557660168361447f565b915061558182615542565b602082019050919050565b5f6020820190508181035f8301526155a38161556a565b9050919050565b7f4e487b71000000000000000000000000000000000000000000000000000000005f52603260045260245ffd5b7f4e487b71000000000000000000000000000000000000000000000000000000005f52601160045260245ffd5b5f61560e826142fe565b9150615619836142fe565b9250828201905080821115615631576156306155d7565b5b92915050565b5f615641826142fe565b915061564c836142fe565b9250828203905081811115615664576156636155d7565b5b92915050565b5f60608201905061567d5f83018661436f565b61568a602083018561436f565b615697604083018461436f565b949350505050565b5f6040820190506156b25f83018561436f565b6156bf6020830184614fb7565b9392505050565b5f819050919050565b5f67ffffffffffffffff82169050919050565b5f6156fc6156f76156f2846156c6565b615351565b6156cf565b9050919050565b61570c816156e2565b82525050565b5f6020820190506157255f830184615703565b92915050565b5f60408201905061573e5f83018561436f565b61574b602083018461436f565b9392505050565b5f6060820190506157655f830186614fb7565b818103602083015261577781856144ad565b9050818103604083015261578b81846144ad565b9050949350505050565b7f455243313135353a2063616c6c6572206973206e6f7420746f6b656e206f776e5f8201527f6572206f7220617070726f766564000000000000000000000000000000000000602082015250565b5f6157ef602e8361447f565b91506157fa82615795565b604082019050919050565b5f6020820190508181035f83015261581c816157e3565b9050919050565b61582c816142c3565b82525050565b5f6020820190506158455f830184615823565b92915050565b5f60408201905061585e5f830185615823565b61586b6020830184615823565b9392505050565b5f81519050615880816148ae565b92915050565b5f6020828403121561589b5761589a61429c565b5b5f6158a884828501615872565b91505092915050565b5f6040820190506158c45f830185615823565b6158d16020830184614903565b9392505050565b5f81519050919050565b5f82825260208201905092915050565b5f6158fc826158d8565b61590681856158e2565b935061591681856020860161448f565b61591f8161449d565b840191505092915050565b5f60a08201905061593d5f830188615823565b61594a6020830187615823565b615957604083018661436f565b615964606083018561436f565b818103608083015261597681846158f2565b90509695505050505050565b5f81519050615990816143c2565b92915050565b5f602082840312156159ab576159aa61429c565b5b5f6159b884828501615982565b91505092915050565b5f60a0820190506159d45f830188615823565b6159e16020830187615823565b81810360408301526159f38186614c31565b90508181036060830152615a078185614c31565b90508181036080830152615a1b81846158f2565b90509695505050505050565b5f81905092915050565b5f615a3b826158d8565b615a458185615a27565b9350615a5581856020860161448f565b80840191505092915050565b5f615a6c8284615a31565b915081905092915050565b5f608082019050615a8a5f830187615823565b615a97602083018661436f565b615aa4604083018561436f565b615ab1606083018461436f565b95945050505050565b5f6040820190508181035f830152615ad28185614c31565b90508181036020830152615ae68184614c31565b9050939250505056fea2646970667358221220778436785f0c69a5687aa95781786b165381600cf28b48d24c156c5f9363611364736f6c634300081e0033",
  "linkReferences": {},
  "deployedLinkReferences": {}
}